:100000000C9462000C948A000C948A000C948A0070
:100010000C948A000C948A000C948A000C948A0038
:100020000C948A000C948A000C948A000C948A0028
:100030000C948A000C948A000C948A000C948A0018
:100040000C94FD020C948A000C946D030C944703ED
:100050000C948A000C948A000C948A000C948A00F8
:100060000C948A000C948A000000000024002700F1
:100070002A0000000000250028002B0000000000DE
:1000800023002600290004040404040404040202DA
:100090000202020203030303030301020408102007
:1000A0004080010204081020010204081020000012
:1000B0000008000201000003040700000000000027
:1000C0000000240511241FBECFEFD8E0DEBFCDBF56
:1000D00011E0A0E0B1E0E2EBFAE002C005900D9281
:1000E000A231B107D9F721E0A2E1B1E001C01D9230
:1000F000A33CB207E1F710E0C2E6D0E004C02197CC
:10010000FE010E945105C136D107C9F70E949F0325
:100110000C9457050C940000833081F028F4813052
:1001200099F08230A9F008958730A9F08830C9F09D
:100130008430B1F4809180008F7D03C08091800075
:100140008F7780938000089584B58F7784BD08955C
:1001500084B58F7DFBCF8091B0008F778093B00006
:1001600008958091B0008F7DF9CFCF93DF93282F32
:1001700030E0F901E255FF4F8491F901E656FF4F57
:10018000D491F901EA57FF4FC491CC23A1F081111A
:100190000E948C00EC2FF0E0EE0FFF1FE458FF4FA1
:1001A000A591B491EC91ED2381E090E009F480E019
:1001B000DF91CF91089580E090E0FACF1F93CF9325
:1001C000DF93282F30E0F901E255FF4F8491F901C8
:1001D000E656FF4FD491F901EA57FF4FC491CC2363
:1001E000A9F0162F81110E948C00EC2FF0E0EE0F89
:1001F000FF1FEE58FF4FA591B4918FB7F894EC9183
:10020000111108C0D095DE23DC938FBFDF91CF9111
:100210001F910895DE2BF8CFCF93DF9390E0FC0180
:10022000E656FF4F24918A579F4FFC018491882303
:10023000D1F090E0880F991FFC01E859FF4FA5917C
:10024000B491FC01EE58FF4FC591D49161110EC0DD
:100250009FB7F8948C91E22FE0958E238C932881A0
:10026000E223E8839FBFDF91CF9108958FB7F89481
:10027000EC91E22BEC938FBFF6CFCF93DF93EC01A1
:1002800061E08BE00E940C01209731F460E08BE08C
:10029000DF91CF910C94DE00CF3FD10511F461E0E6
:1002A000F6CFE9EBF0E0E491E33029F140F4E130FE
:1002B000B1F0E230D9F0C038D1058CF7E7CFE730A4
:1002C00021F1E83051F1E430B1F780918000806293
:1002D00080938000D0938B00C0938A0004C084B5C3
:1002E000806884BDC7BDDF91CF91089584B58062D9
:1002F00084BDC8BDF8CF8091800080688093800065
:10030000D0938900C0938800EECF8091B0008068C0
:100310008093B000C093B300E6CF8091B0008062BC
:100320008093B000C093B400DECF3FB7F8948091C3
:10033000BF019091C001A091C101B091C20126B549
:10034000A89B05C02F3F19F00196A11DB11D3FBF0D
:10035000BA2FA92F982F8827BC01CD01620F711DDC
:10036000811D911D42E0660F771F881F991F4A95D6
:10037000D1F708958F929F92AF92BF92CF92DF9262
:10038000EF92FF920E9495014B015C018CE2C82E16
:10039000DD24D394E12CF12C0E9495016819790990
:1003A0008A099B09683E734081059105A8F321E005
:1003B000C21AD108E108F10888EE880E83E0981E81
:1003C000A11CB11CC114D104E104F10429F7FF9070
:1003D000EF90DF90CF90BF90AF909F908F90089557
:1003E000AF92BF92CF92DF92EF92FF920F931F9343
:1003F000CF93DF936C017B018B01040F151FEB0181
:100400005E01AE18BF08C017D10759F06991D60137
:10041000ED91FC910190F081E02DC6010995892BA9
:1004200079F7C501DF91CF911F910F91FF90EF9068
:10043000DF90CF90BF90AF900895FC01538D448D15
:10044000252F30E0842F90E0821B930B541710F07F
:10045000CF96089501970895FC01918D828D98178C
:1004600061F0A28DAE0FBF2FB11D5D968C91928D64
:100470009F5F9F73928F90E008958FEF9FEF089595
:10048000FC01918D828D981731F0828DE80FF11D5E
:10049000858D90E008958FEF9FEF0895FC01918D79
:1004A000228D892F90E0805C9F4F821B91098F7372
:1004B0009927089582E191E00E944E0221E0892B64
:1004C00009F420E0822F089580E090E0892B29F044
:1004D0000E945A0281110C9400000895FC01A48D21
:1004E000A80FB92FB11DA35ABF4F2C91848D90E056
:1004F00001968F739927848FA689B7892C93A08939
:10050000B1898C91837080648C93938D848D9813C2
:1005100006C00288F389E02D80818F7D8083089555
:10052000EF92FF920F931F93CF93DF93EC0181E043
:10053000888F9B8D8C8D98131AC0E889F9898081EA
:1005400085FF15C09FB7F894EE89FF896083E8891D
:10055000F98980818370806480839FBF81E090E00F
:10056000DF91CF911F910F91FF90EF900895F62E9C
:100570000B8D10E00F5F1F4F0F731127E02E8C8D36
:100580008E110CC00FB607FCFACFE889F98980817B
:1005900085FFF5CFCE010E946E02F1CFEB8DEC0FFF
:1005A000FD2FF11DE35AFF4FF0829FB7F8940B8F98
:1005B000EA89FB8980818062CFCFCF93DF93EC0102
:1005C000888D8823B9F0AA89BB89E889F9898C913B
:1005D00085FD03C0808186FD0DC00FB607FCF7CFF7
:1005E0008C9185FFF2CF808185FFEDCFCE010E94F7
:1005F0006E02E9CFDF91CF9108951F920F920FB64F
:100600000F9211242F933F938F939F93AF93BF9398
:100610008091BB019091BC01A091BD01B091BE0140
:100620003091BA0123E0230F2D3758F50196A11D13
:10063000B11D2093BA018093BB019093BC01A0939C
:10064000BD01B093BE018091BF019091C001A09106
:10065000C101B091C2010196A11DB11D8093BF01DE
:100660009093C001A093C101B093C201BF91AF911B
:100670009F918F913F912F910F900FBE0F901F90E0
:10068000189526E8230F0296A11DB11DD2CF1F9207
:100690000F920FB60F9211242F933F934F935F93B6
:1006A0006F937F938F939F93AF93BF93EF93FF933A
:1006B00082E191E00E946E02FF91EF91BF91AF91B4
:1006C0009F918F917F916F915F914F913F912F916A
:1006D0000F900FBE0F901F9018951F920F920FB69C
:1006E0000F9211242F938F939F93EF93FF93E09199
:1006F0002201F09123018081E0912801F0912901EC
:1007000082FD1BC0908180912B018F5F8F732091A0
:100710002C01821741F0E0912B01F0E0EE5EFE4FDC
:10072000958F80932B01FF91EF919F918F912F9146
:100730000F900FBE0F901F9018958081F4CFCF932C
:10074000DF93CDB7DEB728970FB6F894DEBF0FBEA4
:10075000CDBF789484B5826084BD84B5816084BD4A
:1007600085B5826085BD85B5816085BD80916E004F
:10077000816080936E001092810080918100826080
:1007800080938100809181008160809381008091BD
:1007900080008160809380008091B10084608093AC
:1007A000B1008091B00081608093B00080917A00A8
:1007B000846080937A0080917A00826080937A00CE
:1007C00080917A00816080937A0080917A008068BD
:1007D00080937A001092C100E0912201F0912301F0
:1007E00082E08083E0911E01F0911F011082E09170
:1007F0002001F09121018FEC808310922A01E09179
:100800002601F091270186E08083E0912401F09198
:100810002501808180618083E0912401F091250190
:10082000808188608083E0912401F091250180819E
:1008300080688083E0912401F091250180818F7D83
:10084000808360E084E00E940C0160E085E00E940B
:100850000C0160E086E00E940C0161E087E00E94EC
:100860000C0161E089E00E940C0161E08AE00E94D5
:100870000C0161E08BE00E940C019AEA292E312CD8
:1008800084E00E94B5009A83898385E00E94B500C8
:1008900098878F8386E00E94B5002FB7F894409127
:1008A000BB015091BC016091BD017091BE012FBF91
:1008B0008090B6019090B701A090B801B090B901B6
:1008C0002FB7F894C090BB01D090BC01E090BD015F
:1008D000F090BE012FBF009719F561E087E00E94FC
:1008E000DE000E94BA0160E087E00E94DE000E9404
:1008F000BA011092B1011092B00190E080E00E9424
:100900003D0180E0682E80E0782E672809F4B8CF9A
:100910000E945A02882309F4B3CF0E940000B0CF8E
:100920004090B2015090B3016090B4017090B50155
:100930009701860104191509260937090B831C83C1
:100940002D833E832091AF014B805C806D807E8043
:10095000222309F44EC009E8401603E15006610461
:10096000710408F04DC06A017B01C818D908EA0873
:10097000FB0809811A8101301105D1F418EEC11666
:1009800013E0D106E104F10470F02FEF30E0309372
:10099000B1012093B0014093B6015093B701609329
:1009A000B8017093B9018091B0019091B101A7CFC6
:1009B0000F8118850130110561F418EEC11613E09E
:1009C000D106E104F10478F33092B1012092B00134
:1009D000E2CF019741F728EEC21623E0D206E104E8
:1009E000F10408F385E590E09093B1018093B001A4
:1009F000D2CF08E8401603E150066104710478F094
:100A000060E08BE00E94DE001092AF01C092B20164
:100A1000D092B301E092B401F092B50172CF8B8114
:100A20009C81AD81BE81883E9340A105B10508F44B
:100A300068CF8091B0019091B1010E943D014424A2
:100A400043944092AF01E2CFE2E1F1E013821282DF
:100A500088EE93E0A0E0B0E084839583A683B7831B
:100A600084E091E09183808385EC90E09587848792
:100A700084EC90E09787868780EC90E0918B808B68
:100A800081EC90E0938B828B82EC90E0958B848B51
:100A900086EC90E0978B868B118E128E138E148EBF
:100AA0000895EE0FFF1F0590F491E02D0994F8943E
:020AB000FFCF76
:100AB200000000009002F0011D02DD024E022C0235
:020AC2004002F0
:00000001FF
